:040000008031202803
:100008007E14803120007F08F3002100101C132883
:100018002000101C13288331402380311B28210025
:10002800101F1B282000101F1B2883319E237308D4
:100038002000FF007E10090080312228DC30840077
:10004800213085000430FE000230FF0083316C232C
:100058008031F801F90143308400003085001B30FD
:10006800FE000030FF0083316C237E1020008031B9
:100078003D282000C101C201BE01BF0183311D23FB
:100088008031DF302000B600360821008C05DF30D3
:100098002000B600360822008C05DC3086002130AE
:1000A8008700003084000030850002302000B60050
:1000B8000130B70012001E000130B6020030B73B15
:1000C80037083604031D5E28DE308600223087009C
:1000D800003084000030850002302000B600013076
:1000E800B70012001E000130B6020030B73B3708D7
:1000F8003604031D75287E302000B2008330B3001B
:100108007830B4008330B5008131F121803120008E
:10011800B6003608C5000B178B174408BF00430804
:10012800BE0020004703031D1729DC30860022305B
:10013800870001090139B6003608C000C701C101AE
:10014800C201003042024030031941020318172946
:100158004208B7004108B600B635B70D4008B800E8
:10016800B9010730B835B90D890BB628DC30BA00AB
:100178002130BB0038083A07BC0039083B3DBD00B8
:1001880036083C07860037083D3D8700403FF400AD
:10019800413FF50045088231ED228031DE3086008E
:1001A80023308700010901392000B6003608C00055
:1001B800450883310B23803120004208B7004108ED
:1001C800B600B635B70D4008B800B9010730B835E4
:1001D800B90D890BEB28DE30BA002230BB00380895
:1001E8003A07BC0039083B3DBD0036083C0786008D
:1001F80037083D3D87003208C03F3308C13FDC3037
:1002080086002230870001090139B6003608C0008F
:100218000130C1070030C23D0030420240300319AE
:100228004102031CAC283E09B6003F09B700B60AD4
:100238000319B70A43083607B8004408373DB90020
:1002480000303902643003193802031C9528440829
:10025800BF004308BE002030B600360822008C06D6
:10026800952883319823813170082000A0007108F7
:10027800A100A136A00CDD308600223087000108DD
:10028800A200A301A235A30DDC308600223087002E
:100298000108A400A5010730A435A50D890B502934
:1002A800DC30A6002130A70024082607A80025086E
:1002B800273DA9002208280786002308293D870032
:1002C8002008C03F2108C13F0030A0008030A100B5
:1002D8000030A2000030A300DF3086002330870002
:1002E8000108A400A501A435A50DDE308600233041
:1002F80087000108A600A7010730A635A70D890BBE
:100308008129DE30A8002230A90026082807AA0083
:100318002708293DAB002A08240784002B08253D1F
:100328008500003FAC00013FAD00AE01AF012C08D5
:10033800A0072D08A13D2E08A23D2F08A33D083097
:10034800B000A337A20CA10CA00CB00BA529200863
:10035800B1003108F20072088331A32381310130E2
:100368002000A000DD3086002230870020088107A9
:10037800DD3086002230870040300106031DD32976
:100388000130A000DC30860022308700200881067A
:10039800DD308600223087008101C701C70A01309D
:1003A800A000DF3086002330870020088107DF3077
:1003B80086002330870040300106031D0800013005
:1003C800A000DE3086002330870020088106DF3059
:1003D800860023308700810108004830F400740843
:1003E800F50078030319652A75080A3E8600870117
:1003F8000030C03FC13F7508860087010030C03F0C
:10040800C13F7508023E860087010030C03FC13FEA
:100418007508043E860087010030C03FC13F75085B
:10042800063E860087010030C03FC13F7508083E80
:10043800860087010030C03FC13F20003208860097
:100448003308870075080C3E84008501403F803FD3
:10045800413F813F320886003308870042317508E2
:100468000E3E84008501403F803F413F813F340874
:100478008600350887007508103E84008501403FD6
:10048800803F413F813F340886003508870042316C
:100498007508123E84008501403F803F413F813FFF
:1004A800340886003508870044317508143E8400F6
:1004B8008501403F803F413F813FF801F80A7508B8
:0604C800080000300800EE
:1004D0000808E7002C000030930092009100900083
:1004E0008F002B00013F9100003F9000113F8D00D5
:1004F000103F8C008F018E012C00141B7D2A2B00D5
:10050000033F9100023F9000133F8D00123F8C008B
:100510008F018E012C00141B8B2A2B00053F9100AC
:10052000043F9000153F8D00143F8C008F018E0119
:100530002C00141B992A2B00073F9100063F9000C6
:100540000D3F8D000C3F8C008F018E012C00141B81
:10055000A72A093F9100083F90000F3F8D000E3FF2
:100560008C008F018E012C00141BB42A2B0019085B
:100570008B3F18088A3F023F843F033F853F003F7F
:10058000823F013F833F063F883F073F893F0A3F45
:10059000863F0B3F873F67088800080022008C01D8
:1005A0003E3021008C00173023008C0022008D018A
:1005B000F03021008D00303023008D0024008D01AB
:1005C00022008E01FF3021008E00CF3023008E00EC
:1005D00024008E012100951708002000B4000508B2
:1005E000B3000408B20034080319052B3408840052
:1005F000FF39031D00308500340886008701740828
:10060000C03F7508C13F8231682220003308850051
:10061000320884000800F40074080319192B7408C8
:100620000A3E86008701403F2000B200413FB300F0
:1006300008002000B201B301080083318C2383310C
:100640008231CE22833183318223833183319223DD
:1006500083318331A823833183312F230800200085
:1006600098019901FC309700173096001708F700A1
:100670001608F6001010210010148331AC23080076
:1006800020001010770817079700160876079600C5
:1006900083314F238331013083315E2308000130E1
:1006A000F0007008F90709307902031C0800F9010D
:1006B00001302000C3070030C43D0800F10071087C
:1006C000F000F00DF00D21001D0870068339700652
:1006D0009D001D149D14080064008001013101304B
:1006E000FE020030FF3B7F087E04031900346D2BAF
:1006F00022342B34DB34003422342B34A234E5345E
:10070000F5344834013021009D0050309E009F0197
:100710009B019C0110170800F030210099009A01FC
:1007200098010800A03022009800FF3099000800CE
:1007300021001C08F1001B08F00008002000101325
:10074000813135210800F00070082200990008006E
:0E07500083302C0094000800200018140800CC
:020000040001F9
:06000E00BC3FFB3E9F3FDA
:00000001FF
